{
  "_format": "hh-sol-artifact-1",
  "contractName": "Raffle",
  "sourceName": "contracts/Raffle.sol",
  "abi": [
    {
      "inputs": [
        {
          "internalType": "uint256",
          "name": "entranceFee",
          "type": "uint256"
        },
        {
          "internalType": "address",
          "name": "vrfCoordinatorV2",
          "type": "address"
        },
        {
          "internalType": "bytes32",
          "name": "gasLane",
          "type": "bytes32"
        },
        {
          "internalType": "uint64",
          "name": "subscriptionId",
          "type": "uint64"
        },
        {
          "internalType": "uint32",
          "name": "callbackGasLimit",
          "type": "uint32"
        },
        {
          "internalType": "uint256",
          "name": "interval",
          "type": "uint256"
        }
      ],
      "stateMutability": "nonpayable",
      "type": "constructor"
    },
    {
      "inputs": [
        {
          "internalType": "address",
          "name": "have",
          "type": "address"
        },
        {
          "internalType": "address",
          "name": "want",
          "type": "address"
        }
      ],
      "name": "OnlyCoordinatorCanFulfill",
      "type": "error"
    },
    {
      "inputs": [],
      "name": "Raffle_NotEnoughEtherEntered",
      "type": "error"
    },
    {
      "inputs": [],
      "name": "Raffle_NotOpen",
      "type": "error"
    },
    {
      "inputs": [],
      "name": "Raffle_TransferFailed",
      "type": "error"
    },
    {
      "inputs": [
        {
          "internalType": "uint256",
          "name": "currentBalance",
          "type": "uint256"
        },
        {
          "internalType": "uint256",
          "name": "numPlayers",
          "type": "uint256"
        },
        {
          "internalType": "uint256",
          "name": "raffleState",
          "type": "uint256"
        }
      ],
      "name": "Raffle_UpKeepNotNeeded",
      "type": "error"
    },
    {
      "anonymous": false,
      "inputs": [
        {
          "indexed": true,
          "internalType": "address",
          "name": "player",
          "type": "address"
        }
      ],
      "name": "RaffleEnter",
      "type": "event"
    },
    {
      "anonymous": false,
      "inputs": [
        {
          "indexed": true,
          "internalType": "address",
          "name": "winner",
          "type": "address"
        }
      ],
      "name": "Raffle_RecentWinner",
      "type": "event"
    },
    {
      "anonymous": false,
      "inputs": [
        {
          "indexed": true,
          "internalType": "uint256",
          "name": "requestId",
          "type": "uint256"
        }
      ],
      "name": "Raffle_RequestedRaffleWinner",
      "type": "event"
    },
    {
      "inputs": [],
      "name": "EnterRaffle",
      "outputs": [],
      "stateMutability": "payable",
      "type": "function"
    },
    {
      "inputs": [
        {
          "internalType": "bytes",
          "name": "",
          "type": "bytes"
        }
      ],
      "name": "checkUpkeep",
      "outputs": [
        {
          "internalType": "bool",
          "name": "upKeepNeeded",
          "type": "bool"
        },
        {
          "internalType": "bytes",
          "name": "",
          "type": "bytes"
        }
      ],
      "stateMutability": "nonpayable",
      "type": "function"
    },
    {
      "inputs": [],
      "name": "getEntranceFee",
      "outputs": [
        {
          "internalType": "uint256",
          "name": "",
          "type": "uint256"
        }
      ],
      "stateMutability": "view",
      "type": "function"
    },
    {
      "inputs": [],
      "name": "getInterval",
      "outputs": [
        {
          "internalType": "uint256",
          "name": "",
          "type": "uint256"
        }
      ],
      "stateMutability": "view",
      "type": "function"
    },
    {
      "inputs": [],
      "name": "getLastTimeStamp",
      "outputs": [
        {
          "internalType": "uint256",
          "name": "",
          "type": "uint256"
        }
      ],
      "stateMutability": "view",
      "type": "function"
    },
    {
      "inputs": [],
      "name": "getNumWords",
      "outputs": [
        {
          "internalType": "uint256",
          "name": "",
          "type": "uint256"
        }
      ],
      "stateMutability": "pure",
      "type": "function"
    },
    {
      "inputs": [],
      "name": "getNumberOfPlayers",
      "outputs": [
        {
          "internalType": "uint256",
          "name": "",
          "type": "uint256"
        }
      ],
      "stateMutability": "view",
      "type": "function"
    },
    {
      "inputs": [
        {
          "internalType": "uint256",
          "name": "Index",
          "type": "uint256"
        }
      ],
      "name": "getPlayers",
      "outputs": [
        {
          "internalType": "address",
          "name": "",
          "type": "address"
        }
      ],
      "stateMutability": "view",
      "type": "function"
    },
    {
      "inputs": [],
      "name": "getRaffleState",
      "outputs": [
        {
          "internalType": "enum Raffle.RaffleState",
          "name": "",
          "type": "uint8"
        }
      ],
      "stateMutability": "view",
      "type": "function"
    },
    {
      "inputs": [],
      "name": "getRecentWinner",
      "outputs": [
        {
          "internalType": "address",
          "name": "",
          "type": "address"
        }
      ],
      "stateMutability": "view",
      "type": "function"
    },
    {
      "inputs": [],
      "name": "getRequestConfirmations",
      "outputs": [
        {
          "internalType": "uint256",
          "name": "",
          "type": "uint256"
        }
      ],
      "stateMutability": "pure",
      "type": "function"
    },
    {
      "inputs": [
        {
          "internalType": "bytes",
          "name": "",
          "type": "bytes"
        }
      ],
      "name": "performUpkeep",
      "outputs": [],
      "stateMutability": "nonpayable",
      "type": "function"
    },
    {
      "inputs": [
        {
          "internalType": "uint256",
          "name": "requestId",
          "type": "uint256"
        },
        {
          "internalType": "uint256[]",
          "name": "randomWords",
          "type": "uint256[]"
        }
      ],
      "name": "rawFulfillRandomWords",
      "outputs": [],
      "stateMutability": "nonpayable",
      "type": "function"
    },
    {
      "inputs": [],
      "name": "vrfCoordinator",
      "outputs": [
        {
          "internalType": "contract VRFCoordinatorV2Interface",
          "name": "",
          "type": "address"
        }
      ],
      "stateMutability": "view",
      "type": "function"
    }
  ],
  "bytecode": "0x6101406040523480156200001257600080fd5b5060405162001902380380620019028339818101604052810190620000389190620001b6565b848073ffffffffffffffffffffffffffffffffffffffff1660808173ffffffffffffffffffffffffffffffffffffffff1660601b81525050508560a0818152505084600160006101000a81548173ffffffffffffffffffffffffffffffffffffffff021916908373ffffffffffffffffffffffffffffffffffffffff1602179055508360c081815250508267ffffffffffffffff1660e08167ffffffffffffffff1660c01b815250508163ffffffff166101008163ffffffff1660e01b815250506000600260146101000a81548160ff02191690836002811115620001225762000121620002be565b5b02179055508061012081815250504260038190555050505050505062000374565b6000815190506200015481620002f2565b92915050565b6000815190506200016b816200030c565b92915050565b600081519050620001828162000326565b92915050565b600081519050620001998162000340565b92915050565b600081519050620001b0816200035a565b92915050565b60008060008060008060c08789031215620001d657620001d5620002ed565b5b6000620001e689828a0162000171565b9650506020620001f989828a0162000143565b95505060406200020c89828a016200015a565b94505060606200021f89828a016200019f565b93505060806200023289828a0162000188565b92505060a06200024589828a0162000171565b9150509295509295509295565b60006200025f8262000270565b9050919050565b6000819050919050565b600073ffffffffffffffffffffffffffffffffffffffff82169050919050565b6000819050919050565b600063ffffffff82169050919050565b600067ffffffffffffffff82169050919050565b7f4e487b7100000000000000000000000000000000000000000000000000000000600052602160045260246000fd5b600080fd5b620002fd8162000252565b81146200030957600080fd5b50565b620003178162000266565b81146200032357600080fd5b50565b620003318162000290565b81146200033d57600080fd5b50565b6200034b816200029a565b81146200035757600080fd5b50565b6200036581620002aa565b81146200037157600080fd5b50565b60805160601c60a05160c05160e05160c01c6101005160e01c61012051611520620003e26000396000818161087b01526108e9015260006106e4015260006106c1015260006106a0015260008181610340015261043d01526000818161037d01526103d101526115206000f3fe6080604052600436106100dd5760003560e01c806353a2c19a1161007f57806391ad27b41161005957806391ad27b414610290578063a3e56fa8146102bb578063c1c244e8146102e6578063fd6673f514610311576100dd565b806353a2c19a146101fc5780635f1b0fd8146102275780636e04ff0d14610252576100dd565b806325d2528e116100bb57806325d2528e146101615780634585e33b1461016b578063460e204914610194578063473f1ddc146101d1576100dd565b806309bc33a7146100e2578063115cbaf51461010d5780631fe543e314610138575b600080fd5b3480156100ee57600080fd5b506100f761033c565b60405161010491906110f0565b60405180910390f35b34801561011957600080fd5b50610122610364565b60405161012f91906110d5565b60405180910390f35b34801561014457600080fd5b5061015f600480360381019061015a9190610e9f565b61037b565b005b61016961043b565b005b34801561017757600080fd5b50610192600480360381019061018d9190610daf565b6105aa565b005b3480156101a057600080fd5b506101bb60048036038101906101b69190610e45565b6107ac565b6040516101c89190610ff3565b60405180910390f35b3480156101dd57600080fd5b506101e66107f3565b6040516101f39190610ff3565b60405180910390f35b34801561020857600080fd5b5061021161081d565b60405161021e91906110f0565b60405180910390f35b34801561023357600080fd5b5061023c61082c565b60405161024991906110f0565b60405180910390f35b34801561025e57600080fd5b5061027960048036038101906102749190610dfc565b610839565b604051610287929190611037565b60405180910390f35b34801561029c57600080fd5b506102a56108e5565b6040516102b291906110f0565b60405180910390f35b3480156102c757600080fd5b506102d061090d565b6040516102dd91906110ba565b60405180910390f35b3480156102f257600080fd5b506102fb610933565b60405161030891906110f0565b60405180910390f35b34801561031d57600080fd5b5061032661093d565b60405161033391906110f0565b60405180910390f35b60007f0000000000000000000000000000000000000000000000000000000000000000905090565b6000600260149054906101000a900460ff16905090565b7f000000000000000000000000000000000000000000000000000000000000000073ffffffffffffffffffffffffffffffffffffffff163373ffffffffffffffffffffffffffffffffffffffff161461042d57337f00000000000000000000000000000000000000000000000000000000000000006040517f1cf993f400000000000000000000000000000000000000000000000000000000815260040161042492919061100e565b60405180910390fd5b6104378282610949565b5050565b7f0000000000000000000000000000000000000000000000000000000000000000341015610495576040517f7fe3810300000000000000000000000000000000000000000000000000000000815260040160405180910390fd5b600060028111156104a9576104a8611400565b5b600260149054906101000a900460ff1660028111156104cb576104ca611400565b5b14610502576040517fd6e19a8d00000000000000000000000000000000000000000000000000000000815260040160405180910390fd5b6000339080600181540180825580915050600190039060005260206000200160009091909190916101000a81548173ffffffffffffffffffffffffffffffffffffffff021916908373ffffffffffffffffffffffffffffffffffffffff1602179055503373ffffffffffffffffffffffffffffffffffffffff167f0805e1d667bddb8a95f0f09880cf94f403fb596ce79928d9f29b74203ba284d460405160405180910390a2565b60006105c460405180602001604052806000815250610839565b509050806106335747600080549050600260149054906101000a900460ff1660028111156105f5576105f4611400565b5b6040517fc61de3e100000000000000000000000000000000000000000000000000000000815260040161062a9392919061110b565b60405180910390fd5b6001600260146101000a81548160ff0219169083600281111561065957610658611400565b5b02179055506000600160009054906101000a900473ffffffffffffffffffffffffffffffffffffffff1673ffffffffffffffffffffffffffffffffffffffff16635d3b1d307f00000000000000000000000000000000000000000000000000000000000000007f000000000000000000000000000000000000000000000000000000000000000060037f000000000000000000000000000000000000000000000000000000000000000060016040518663ffffffff1660e01b8152600401610725959493929190611067565b602060405180830381600087803b15801561073f57600080fd5b505af1158015610753573d6000803e3d6000fd5b505050506040513d601f19601f820116820180604052508101906107779190610e72565b9050807f63c89e9c2f6ef051d628482ef4e135d24b25a90e93e85c3be1b195b029cfac8060405160405180910390a250505050565b60008082815481106107c1576107c061142f565b5b9060005260206000200160009054906101000a900473ffffffffffffffffffffffffffffffffffffffff169050919050565b6000600260009054906101000a900473ffffffffffffffffffffffffffffffffffffffff16905090565b6000600163ffffffff16905090565b6000600361ffff16905090565b60006060600080600281111561085257610851611400565b5b600260149054906101000a900460ff16600281111561087457610873611400565b5b14905060007f0000000000000000000000000000000000000000000000000000000000000000600354426108a891906111eb565b119050600080600080549050119050600080471190508380156108c85750825b80156108d15750815b80156108da5750805b955050505050915091565b60007f0000000000000000000000000000000000000000000000000000000000000000905090565b600160009054906101000a900473ffffffffffffffffffffffffffffffffffffffff1681565b6000600354905090565b60008080549050905090565b60008080549050826000815181106109645761096361142f565b5b60200260200101516109769190611371565b9050600080828154811061098d5761098c61142f565b5b9060005260206000200160009054906101000a900473ffffffffffffffffffffffffffffffffffffffff16905080600260006101000a81548173ffffffffffffffffffffffffffffffffffffffff021916908373ffffffffffffffffffffffffffffffffffffffff1602179055506000600260146101000a81548160ff02191690836002811115610a2157610a20611400565b5b021790555060008173ffffffffffffffffffffffffffffffffffffffff1647604051610a4c90610fde565b60006040518083038185875af1925050503d8060008114610a89576040519150601f19603f3d011682016040523d82523d6000602084013e610a8e565b606091505b5050905080610ac9576040517fba31c4f300000000000000000000000000000000000000000000000000000000815260040160405180910390fd5b8173ffffffffffffffffffffffffffffffffffffffff167f0882625dff0945b5b56ae064433ad75087d6af1e762d31d793e4b10efa5589eb60405160405180910390a2600067ffffffffffffffff811115610b2757610b2661145e565b5b604051908082528060200260200182016040528015610b555781602001602082028036833780820191505090505b5060009080519060200190610b6b929190610b7a565b50426003819055505050505050565b828054828255906000526020600020908101928215610bf3579160200282015b82811115610bf25782518260006101000a81548173ffffffffffffffffffffffffffffffffffffffff021916908373ffffffffffffffffffffffffffffffffffffffff16021790555091602001919060010190610b9a565b5b509050610c009190610c04565b5090565b5b80821115610c1d576000816000905550600101610c05565b5090565b6000610c34610c2f84611167565b611142565b90508083825260208201905082856020860282011115610c5757610c56611497565b5b60005b85811015610c875781610c6d8882610d85565b845260208401935060208301925050600181019050610c5a565b5050509392505050565b6000610ca4610c9f84611193565b611142565b905082815260208101848484011115610cc057610cbf61149c565b5b610ccb8482856112fe565b509392505050565b600082601f830112610ce857610ce7611492565b5b8135610cf8848260208601610c21565b91505092915050565b60008083601f840112610d1757610d16611492565b5b8235905067ffffffffffffffff811115610d3457610d3361148d565b5b602083019150836001820283011115610d5057610d4f611497565b5b9250929050565b600082601f830112610d6c57610d6b611492565b5b8135610d7c848260208601610c91565b91505092915050565b600081359050610d94816114d3565b92915050565b600081519050610da9816114d3565b92915050565b60008060208385031215610dc657610dc56114a6565b5b600083013567ffffffffffffffff811115610de457610de36114a1565b5b610df085828601610d01565b92509250509250929050565b600060208284031215610e1257610e116114a6565b5b600082013567ffffffffffffffff811115610e3057610e2f6114a1565b5b610e3c84828501610d57565b91505092915050565b600060208284031215610e5b57610e5a6114a6565b5b6000610e6984828501610d85565b91505092915050565b600060208284031215610e8857610e876114a6565b5b6000610e9684828501610d9a565b91505092915050565b60008060408385031215610eb657610eb56114a6565b5b6000610ec485828601610d85565b925050602083013567ffffffffffffffff811115610ee557610ee46114a1565b5b610ef185828601610cd3565b9150509250929050565b610f048161121f565b82525050565b610f1381611231565b82525050565b610f228161123d565b82525050565b6000610f33826111c4565b610f3d81856111cf565b9350610f4d81856020860161130d565b610f56816114ab565b840191505092915050565b610f6a816112b6565b82525050565b610f79816112c8565b82525050565b6000610f8c6000836111e0565b9150610f97826114bc565b600082019050919050565b610fab8161125a565b82525050565b610fba81611288565b82525050565b610fc981611292565b82525050565b610fd8816112a2565b82525050565b6000610fe982610f7f565b9150819050919050565b60006020820190506110086000830184610efb565b92915050565b60006040820190506110236000830185610efb565b6110306020830184610efb565b9392505050565b600060408201905061104c6000830185610f0a565b818103602083015261105e8184610f28565b90509392505050565b600060a08201905061107c6000830188610f19565b6110896020830187610fcf565b6110966040830186610fa2565b6110a36060830185610fc0565b6110b06080830184610fc0565b9695505050505050565b60006020820190506110cf6000830184610f61565b92915050565b60006020820190506110ea6000830184610f70565b92915050565b60006020820190506111056000830184610fb1565b92915050565b60006060820190506111206000830186610fb1565b61112d6020830185610fb1565b61113a6040830184610fb1565b949350505050565b600061114c61115d565b90506111588282611340565b919050565b6000604051905090565b600067ffffffffffffffff8211156111825761118161145e565b5b602082029050602081019050919050565b600067ffffffffffffffff8211156111ae576111ad61145e565b5b6111b7826114ab565b9050602081019050919050565b600081519050919050565b600082825260208201905092915050565b600081905092915050565b60006111f682611288565b915061120183611288565b925082821015611214576112136113a2565b5b828203905092915050565b600061122a82611268565b9050919050565b60008115159050919050565b6000819050919050565b6000819050611255826114bf565b919050565b600061ffff82169050919050565b600073ffffffffffffffffffffffffffffffffffffffff82169050919050565b6000819050919050565b600063ffffffff82169050919050565b600067ffffffffffffffff82169050919050565b60006112c1826112da565b9050919050565b60006112d382611247565b9050919050565b60006112e5826112ec565b9050919050565b60006112f782611268565b9050919050565b82818337600083830152505050565b60005b8381101561132b578082015181840152602081019050611310565b8381111561133a576000848401525b50505050565b611349826114ab565b810181811067ffffffffffffffff821117156113685761136761145e565b5b80604052505050565b600061137c82611288565b915061138783611288565b925082611397576113966113d1565b5b828206905092915050565b7f4e487b7100000000000000000000000000000000000000000000000000000000600052601160045260246000fd5b7f4e487b7100000000000000000000000000000000000000000000000000000000600052601260045260246000fd5b7f4e487b7100000000000000000000000000000000000000000000000000000000600052602160045260246000fd5b7f4e487b7100000000000000000000000000000000000000000000000000000000600052603260045260246000fd5b7f4e487b7100000000000000000000000000000000000000000000000000000000600052604160045260246000fd5b600080fd5b600080fd5b600080fd5b600080fd5b600080fd5b600080fd5b6000601f19601f8301169050919050565b50565b600381106114d0576114cf611400565b5b50565b6114dc81611288565b81146114e757600080fd5b5056fea26469706673582212204ce4e4ca5a66f53b2762dfb39b0edfbb64c8a13a90c9f6b4c1264ca627e0070564736f6c63430008070033",
  "linkReferences": {},
  "deployedLinkReferences": {}
}